:020000040800F2
:10000000283501200D030008B31000085B1000081C
:10001000B11000084D05000805130008000000009D
:100020000000000000000000000000004D02000879
:100030004F05000800000000A9020008591100083F
:1000400027030008270300082703000827030008E8
:1000500027030008270300082703000827030008D8
:1000600027030008270300082703000827030008C8
:1000700027030008270300082703000827030008B8
:1000800027030008270300082703000827030008A8
:100090002703000827030008270300082703000898
:1000A0002703000827030008270300082703000888
:1000B0002703000827030008270300082703000878
:1000C0002703000827030008270300082703000868
:1000D00027030008D9120008270300082703000897
:1000E0002703000827030008270300082703000848
:1000F0002703000827030008270300082703000838
:100100002703000827030008270300082703000827
:100110002703000827030008270300082703000817
:100120002703000827030008270300082703000807
:1001300027030008270300082703000827030008F7
:1001400027030008270300082703000827030008E7
:1001500027030008270300082703000827030008D7
:1001600027030008270300082703000827030008C7
:1001700027030008270300082703000827030008B7
:1001800027030008270300082703000827030008A7
:100190002703000827030008270300082703000897
:1001A00000000000000000002703000800F002F833
:1001B00000F03CF80AA090E8000C82448344AAF1C5
:1001C0000107DA4501D100F031F8AFF2090EBAE8C3
:1001D0000F0013F0010F18BFFB1A43F0010318477B
:1001E0000029000020290000103A24BF78C878C1F7
:1001F000FAD8520724BF30C830C144BF04680C602D
:10020000704700000023002400250026103A28BF74
:1002100078C1FBD8520728BF30C148BF0B60704778
:100220001FB502F04FFC1FBD10B510BD00F05BF90B
:100230001146FFF7F5FF01F0D9F800F079F903B4A2
:10024000FFF7F2FF03BC01F05EF800002C4B1968C9
:100250000868B0E8F04F80F30988BFF36F8F4FF064
:10026000000080F311887047000000000848006813
:10027000006880F308884FF0000080F3148862B6AD
:1002800061B6BFF34F8FBFF36F8F00DF00BF00BFBA
:1002900008ED00E0DFF80C00016841F47001016036
:1002A000704700BF88ED00E0EFF30980BFF36F8F68
:1002B000134B1A681EF0100F08BF20ED108A20E9BA
:1002C000F04F106009B44FF0500080F31188BFF375
:1002D0004F8FBFF36F8F01F003FF4FF0000080F3EB
:1002E000118809BC19680868B0E8F04F1EF0100FBB
:1002F00008BFB0EC108A80F30988BFF36F8F704796
:100300001C000020EFF3058070470000094880477B
:1003100009480047FEE7FEE7FEE7FEE7FEE7FEE7E7
:10032000FEE7FEE7FEE7FEE704480549054A064BFF
:100330007047000079110008AD010008282F012046
:100340002835012028310120283101207047032A57
:1003500040F2308010F0030C00F0158011F8013BE2
:10036000BCF1020F624498BF11F801CB00F8013BC9
:1003700038BF11F8013BA2F1040298BF00F801CB8D
:1003800038BF00F8013B11F0030300F05880083A31
:10039000C0F0088051F8043B083A51F804CBA0E8BB
:1003A0000810F5E7121D5CBF51F8043B40F8043B10
:1003B000AFF30080D20724BF11F8013B11F801CB45
:1003C00048BF11F8012B24BF00F8013B00F801CB16
:1003D00048BF00F8012B704702F0FF0343EA0322F5
:1003E00042EA024200F05FB84FF0000200B5134647
:1003F00094469646203922BFA0E80C50A0E80C5045
:10040000B1F12001BFF4F7AF090728BFA0E80C50F5
:1004100048BF0CC05DF804EB890028BF40F8042BEE
:1004200008BF704748BF20F8022B11F0804F18BF5B
:1004300000F8012B7047704770477047704710B540
:10044000203AC0F00B80B1E81850203AA0E81850CC
:10045000B1E81850A0E81850BFF4F5AF5FEA027C8D
:1004600024BFB1E81850A0E8185044BF18C918C0FC
:10047000BDE810405FEA827C24BF51F8043B40F89D
:10048000043B08BF7047D20728BF31F8023B48BF82
:1004900011F8012B28BF20F8023B48BF00F8012BC0
:1004A00070474FF000020429C0F0128010F0030CD6
:1004B0003FF49CAFCCF1040CBCF1020F18BF00F864
:1004C000012BA8BF20F8022BA1EB0C01FFF78EBF78
:1004D0005FEAC17C24BF00F8012B00F8012B48BF64
:1004E00000F8012B7047754600F02CF8AE46050069
:1004F0006946534620F00700854618B020B5FFF73F
:1005000013FFBDE820404FF000064FF000074FF00A
:1005100000084FF0000B21F00701AC46ACE8C00921
:10052000ACE8C009ACE8C009ACE8C0098D4670472A
:1005300010B50446AFF300802046BDE81040FFF739
:100540007EBE000000487047C82E0120FEE77047BD
:100550002DE9F84FDFF8A091002209F1040A0AF111
:10056000040B4FF00F080BF1040E01260B689640A8
:100570003340B34271D14C68022C01D0122C11D1FE
:10058000D40800EB84073D6A5407E40E08FA04FC23
:1005900025EA0C05D1F810C00CFA04FC4CEA050C55
:1005A000C7F820C007685400032591F804C0A5408F
:1005B0000CF0030CAF430CFA04FC4CEA070CC0F837
:1005C00000C04F68012F05D0022F03D0112F01D09A
:1005D000122F11D18768D1F80CC0AF430CFA04FC7C
:1005E0004CEA070CC0F808C04768B7430E79C6F359
:1005F000001696403E434660C668AE438D68A540EF
:100600003543C5604C68E4006FD53C4C256845F423
:1006100080452560246822F0030504F4804400949A
:10062000374C2E19D6F808789407250F08FA05F4E8
:10063000A743344CA04201D100242EE0324CA0420A
:1006400001D1012429E0314CA04201D1022424E04F
:100650002F4CA04202D103241FE046E02D4CA042C3
:1006600001D1042419E02C4CA04201D1052414E04E
:100670002A4CA04201D106240FE0294CA04201D10E
:1006800007240AE0274CA04201D1082405E0264CAB
:10069000A04201D1092400E00A24AC403C43C6F842
:1006A0000848D9F800404D464E689C43F60300D5F3
:1006B0001C432C60DAF8004055464E689C43B60354
:1006C00000D51C432C60DBF800405D464E689C431F
:1006D000F60200D51C432C60DEF8004075464E68DB
:1006E0009C43B60200D51C432C60521C102AFFF418
:1006F0003CAFBDE8F88F0000003C014044380240A8
:1007000000300140000002400004024000080240A6
:10071000000C024000100240001402400018024089
:10072000001C024000200240002402400AB1816106
:1007300070470904FBE700000148006870470000AB
:10074000080000200B4810B5016841F400710160F9
:10075000016841F480610160016841F480710160C9
:10076000052000F03FF80F2000F006F800F015F823
:10077000002010BD003C024010B5044600F08CF98A
:100780004FF47A71B0FBF1F000F074FB00222146C7
:10079000501E00F007F8002010BD08B500200090A2
:1007A00008BD0000F0B40E4B1B68C3F30223C3F175
:1007B0000704042C00D904241D1D072D01D2002399
:1007C00000E0DB1E012606FA04F56D1E0D409D407B
:1007D0009E40761E164045EA0601F0BC00F06ABC59
:1007E0000CED00E0064A00F0070110684FF6FF0329
:1007F000184040EA01200349084310607047000098
:100800000CED00E00000FA052DE9F8431D480168F1
:1008100041F0805101600068012700F08050009095
:10082000380490FAA0F0DFF86080B0FA80F048F861
:100830002070FFF781FF04464FF47A75134E04E0F1
:10084000FFF77AFF001BA84213D87068C003F7D5E2
:100850004FF4003090FAA0F0B0FA80F048F8207021
:10086000FFF76AFF044607E0FFF766FF001BA84298
:1008700002D90320BDE8F88370688003F4D5002016
:10088000F8E700004038024000000E4200700040CF
:100890002DE9F05FDFF8F8A104460F46DAF8000012
:1008A000DFF8F08100F00F02C8B27A49814641F2C8
:1008B000883608F10808BA4261D202468AF8002058
:1008C000DAF8000000F00F00B8427DD120788007F0
:1008D00007D5D8F80020A36822F0F0021A43C8F820
:1008E00000202078C0072DD0606801281AD0022887
:1008F0001BD0032819D009688907002964DAD8F8C1
:100900000010474621F003010143C8F80010FFF72B
:1009100013FF0546606801280FD0022818D003286D
:100920001CD027E009688903E7E709688901E4E743
:10093000FFF702FF401BB04258D83868C0F381006F
:100940000128F5D188E0FFF7F7FE401BB0424DD8F3
:100950003868C0F381000228F5D17DE03868FFF7E0
:10096000EBFE401BB042F9D940E0FFF7E5FE401B2B
:10097000B0423BD8386810F00C0FF6D16CE020780C
:10098000800707D5D8F80020A36822F0F0021A43A8
:10099000C8F800202078C0074CD06068012828D013
:1009A000022829D0032827D009688907002949DAB5
:1009B000D8F8002022F003020243C8F80020FFF715
:1009C000BBFE0546606800E03CE001281DD002281F
:1009D00029D0032838D0B3464646306810F00C0FB3
:1009E00028D0FFF7A9FE411B5945F6D90320BDE8E1
:1009F000F09F09688903D9E709688901D6E7FFF7FD
:100A00009BFE411B594502D9F0E7B3464646306884
:100A1000C0F381000128F2D10CE0FFF78DFE411BED
:100A2000594502D9E2E7B34646463068C0F3810033
:100A30000228F2D18AF80090DAF8000000F00F00E6
:100A4000B84209D00120D2E744462068FFF774FE7F
:100A5000401BB042F9D9C9E72078400707D5D8F83C
:100A60000010E26821F4E0511143C8F8001020782A
:100A7000000708D5D8F80010226921F4604141EA46
:100A8000C201C8F800100F20FFF776FE0020AEE785
:100A9000003C02400038024010B500F017F8084949
:100AA0000968F02292FAA2F201F0F001B2FA82F2A1
:100AB000D140044A515CC8400349086010BD0000A1
:100AC00008380240CE2A00080400002030B519483A
:100AD000006810F00C01184812D0184C04290ED0F0
:100AE00008290DD1134A121F1168136801F03F0144
:100AF0005D0247F6C07304D5B4FBF1F003E0204675
:100B000030BDB0FBF1F01168194093FAA3F3B3FACA
:100B100083F3D940484311684FF4403292FAA2F26D
:100B200001F44031B2FA82F2D140491C4900B0FBD5
:100B3000F1F030BD083802400024F40040787D0117
:100B40002DE9F84F04460078DFF8FCA2BF4DC0073E
:100B50004FF0000648D0DAF800105046C1F381018A
:100B6000012908D00068C0F3810002280AD1281D9D
:100B70000068400206D52868800335D560680028E3
:100B800073D031E0DFF8C49209F1020989F80060FE
:100B9000FFF7D2FD074641F2883804E0FFF7CCFDAD
:100BA000C11B41457AD828688003F7D4207989F899
:100BB0000000606860B1FFF7BFFD074604E0FFF783
:100BC000BBFDC11B4145EDD828688003F7D50BE07C
:100BD000FFF7B2FD074604E0FFF7AEFDC11B41453C
:100BE000E0D828688003F7D42078DFF86492800783
:100BF00044D5DAF80010504611F00C0F4FF0F80809
:100C000009D00068C0F3810002280BD18E48001F74
:100C10000068400206D42868800714D5E0680128DF
:100C200023D110E0E068D0B10120C9F80000FFF73F
:100C300083FD074604E0FFF77FFDC01B6428B1D8A1
:100C400028688007F7D5286898FAA8F22169B2FACF
:100C500082F220F0F8009140084328600EE0C9F8C5
:100C60000060FFF769FD074605E0EAE0FFF764FD75
:100C7000C01B642812D828688007F7D420780007A2
:100C800025D5DFF8C4817348616908F16C0881B12A
:100C900001210160FFF750FD074605E07EE0FFF708
:100CA0004BFDC01B642879D8D8F800008007F6D522
:100CB0000DE00660FFF740FD074604E0FFF73CFD4E
:100CC000C01B64286AD8D8F800008007F6D42078C2
:100CD000400753D55C483830016841F080510160CD
:100CE0000068DFF8748100F080500090D8F80010A0
:100CF00041F48071C8F80010FFF71EFD074604E0BC
:100D0000FFF71AFDC01B642848D8D8F80000C005BA
:100D1000F6D5DFF834B10BF1680B8BF80060FFF704
:100D20000BFD074641F2883804E0FFF705FDC11BC3
:100D300041457ED8DBF800008007F6D4207A8BF896
:100D40000000A06868B1FFF7F7FC074604E0FFF772
:100D5000F3FCC11B41456CD8DBF800008007F6D5D9
:100D60000CE0FFF7E9FC074604E0FFF7E5FCC11BD8
:100D700041455ED8DBF800008007F6D4A069E8B3EF
:100D8000DAF80010C1F3810102295AD0022806D0F6
:100D9000C9F86060FFF7D0FC04464DE049E04F46DB
:100DA000C9F86060FFF7C8FC064604E0FFF7C4FC22
:100DB000801B64283DD828688001F7D4D4E9070156
:100DC000084347F6C07191FAA1F1626AB1FA81F164
:100DD0008A40A16A4FF0FF3303EB51014FF44033D7
:100DE00093FAA3F3B3FA83F399400A4310434FF005
:100DF000706292FAA2F2B2FA82F200E01FE0E16AB7
:100E0000914008431049091F086001203866FFF728
:100E100093FC044604E0FFF78FFC001B642808D80D
:100E200028688001F7D50AE0FFF786FC001B6428DC
:100E300002D90320BDE8F88F28688001F4D400208F
:100E4000F8E70120F6E700000838024000380240C9
:100E500000004742800E4742007000404FF0E02102
:100E60000428086903D020F004000861704740F0AE
:100E70000400FAE710B5401EB0F1807F01D30120D5
:100E800010BD4FF0E02460610F21601700F012F9EF
:100E90000020A06107202061002010BD704790F85D
:100EA0003900704738B5016804460868CA68C0F35D
:100EB000000002F4807238B132B1086848680090CE
:100EC000E06B40F00100E06308684A69C0F340004D
:100ED00002F0010238B132B1086848680090E06B56
:100EE00040F00400E06308684A69C0F3800002F043
:100EF000010238B132B1086848680090E06B40F0F8
:100F00000200E06308684A69C0F3C00002F0010211
:100F100038B132B1086848680090E06B40F00800D2
:100F2000E0630868C968C0F3401001F0200118B1FF
:100F300011B1204600F04AF920680168C068C1F389
:100F4000C01100F0800019B110B1204600F091F9F5
:100F500021680868CA68C0F3801002F040020125C9
:100F600068B162B1CA68204622F04002CA6094F8B3
:100F7000391032290CD080F8395000F06DF8E06B50
:100F8000002804D084F839502046FFF787FF38BD89
:100F9000222180F83910F0E790F83930012B01D088
:100FA000122B2BD131B32AB390F83830012B25D036
:100FB000012380F8383081628285C2850022C263B5
:100FC00090F83910122917D0222180F839100168C1
:100FD000CB6843F48073CB6001684B6943F0010335
:100FE0004B6180F838200068C16841F02001C16081
:100FF00000207047012070473221E6E70220704749
:1010000030B50068114988420CD1114A508801045A
:1010100008D41146440409784FF0000306D50A2984
:1010200001D0538030BD40F400400DE00D2909D0BF
:10103000C0F30D04074D401C80B229555080C728CD
:10104000EFD830BD40F48040508030BD00100140EA
:1010500018000020900000207047FEE7124810B5ED
:10106000016886B041F01001016000680F4C00F08B
:10107000100005904FF44040009001200190029034
:101080000320039069462046FFF762FA00224FF4DE
:1010900080412046FFF74AFB00224FF400412046E2
:1010A000FFF744FB06B010BD30380240001002408C
:1010B000FEE770470907090E002806DA00F00F0066
:1010C00000F1E02080F8141D704700F1E02080F866
:1010D0000014704770B51E4C92B00025266846F08B
:1010E00080562660246804F080541194194C2668B8
:1010F00046F44046266024680DF1240C04F4404474
:101100001194012400940194022406948CE80D00AB
:101110006605CDE907616846FFF712FD00B1FEE7FD
:10112000FFF772FB00B1FEE70CA90F2081E8310048
:101130004FF4A0500F904FF48050109005210CA850
:10114000FFF7A6FB002800D0FEE712B070BD00003C
:10115000403802400070004010B501F0FFFA01284D
:1011600003D0BDE8104001F063B802488168491C13
:10117000816010BD0C0000201048016841F470012E
:1011800001600F48016841F0010101600C4A002133
:101190000832116002680B4B1A400260031D0A4AB4
:1011A0001A60026822F48022026005480C30016057
:1011B00002495806803908607047000088ED00E059
:1011C00000380240FFFFF6FE1030002410B590F802
:1011D0003910222903D0322901D0022010BD8168A4
:1011E000B1F5805F11D00169002901681FD04968FD
:1011F00001F07F03816A4A1C82620B70C18D491E17
:101200000904090CC18518D02FE00269816A002AFF
:101210000268526805D0D2B20A80816A491C816294
:10122000ECE7C2F308020A80816A891CF7E74A6882
:10123000816A4B1C83620A70E0E70168CA6822F089
:101240002002CA6090F83910322910D00168CA68AB
:1012500022F48072CA6001684A6922F001024A6180
:10126000012180F83910FFF7CBFE002010BD1221BC
:10127000F7E790F83910122903D0322901D0022063
:1012800070478168B1F5805F016A0BD04A1C026229
:10129000026809785160C18C491E0904090CC18497
:1012A0000ED017E009880268C1F308015160016996
:1012B0000029016A02D0491C0162ECE7891CFBE7A6
:1012C0000168CA6822F08002CA600068C16841F003
:1012D0004001C1600020704710B50848FFF7E2FDEB
:1012E0000648FFF7DCFD0128FAD101220449034832
:1012F000FFF752FE0028F8D110BD00005801002071
:1013000018000020FEE7704710B504460420FFF7E0
:10131000A5FD0A484FF47A7114FB01F101224460E3
:1013200002804FF0E020026942F002020261416156
:10133000016941F00101016110BD00000C000020B5
:1013400070B5044601F00AFA01280CD0094D28882E
:10135000844203D3B4FBF0F000F0B4FD2888B4FB62
:10136000F0F100FB11444FF47A706043BDE8704027
:1013700000F002B80C00002070B54FF0E02500210D
:101380006C69094AAB6952685043AA699A42FCD019
:1013900002D2A3EB020302E0A4EB02063344194499
:1013A00013468142F1D370BD0C00002030B44FF4DD
:1013B00080450D4B6C0001290AD0002912D170B173
:1013C00001280FD10022214630BC1846FFF7AEB9E4
:1013D00018B1012806D10122F5E7012200E0002220
:1013E0002946F1E730BC7047001002401CB500F000
:1013F00041FC07490220CDE9000100234FF4967219
:1014000004A1074801F07EF900F02AFEFEE7000083
:101410000000002053544152545F5441534B00008C
:10142000351C00082DE9F041184E0F460446F568BA
:101430003068001D00F02FFC38B9306890F82C108F
:1014400001208840316981433161601C07D137B187
:101450003168BDE8F0410E48091D00F055BC306808
:101460002C44AC424460316805D2B06BBDE8F04119
:10147000091D00F031BC706B091D00F02DFCB06A35
:10148000844200D2B462BDE8F08100001C0000205C
:101490008C0200202DE9F041054600F041FC2E4E63
:1014A000B068401CB06030682C4F10B1706940B318
:1014B0002DE03560B068012829D1002404EB8400B8
:1014C00007EB800000F0FAFB641C052CF6D32348E0
:1014D000643000F0F3FB2148783000F0EFFB1F4848
:1014E0008C3000F0EBFB1D48A03000F0E7FB1B4800
:1014F000B43000F0E3FB1948643070631430B0631B
:1015000005E03068E96AC06A884200D83560706AD0
:101510000121401C70622864E86A326981401143ED
:10152000316100EB800007EB8000291D00F0ECFB2F
:1015300000F016FC706900280CD03068E96AC06AB7
:10154000884207D206494FF080500860BFF34F8FA2
:10155000BFF36F8FBDE8F0811C000020D801002090
:1015600004ED00E010B500F0DBFB0E4C2068A0B9E4
:101570000D4800F0A3FB0C48143000F09FFB0A4814
:10158000E0601430206100220C210A2000F066FE89
:10159000206010B105A100F061FCBDE8104000F032
:1015A000DFBB000058000020A0020020546D7251E3
:1015B0000000000030B4026C0B46002A0BD0C1685A
:1015C0001144C1608468A14201D30168C16030BC8C
:1015D0001846FEF7BCBE30BC70472DE9F041856B64
:1015E000174604460026026C82B1C7B1E068FEF7D8
:1015F000AEFEE168206C091AE1602268914202D2D5
:10160000A168081AE060022F16D017E02068A8B978
:10161000A06801F01BF906460020A0600EE060689B
:10162000FEF795FE216C606808446060A1688842FE
:1016300004D32068606001E005B16D1E6D1CA563D8
:101640003046BDE8F08110B50446006B00F09CFB0D
:101650002046BDE8104000F097BB000010484FF452
:101660009631420706D0C01D0D4920F00700411AEF
:10167000C1F596310B4A00230144C2E90003083941
:10168000103A21F0070111604B600B600B1AC0E9A2
:10169000001393604FF000405360D060704700002B
:1016A000C802002088000020134E144DA6F1A007A8
:1016B0004FF08058DFF8489011E000F031FBF068FF
:1016C000C468201D00F0E7FAA868401EA86068689A
:1016D000401E686000F044FB2046FFF7B4FF6868D6
:1016E0000028EAD138680128F9D9C9F80080BFF389
:1016F0004F8FBFF36F8FF2E7780200201C000020AD
:1017000004ED00E02DE9F0479946DDE90984089DE4
:1017100017460E00824616D0B900A522206BFEF7B0
:101720005BFE6FF00301206B01EB8701084420F0A2
:10173000070778070FD0502080F31188BFF34F8F31
:10174000BFF36F8FFEE7502080F31188BFF34F8FF8
:10175000BFF36F8FFEE72218315C82F83410315CE2
:1017600011B1401C0A28F6D3002684F83D60052DEF
:1017700000D30425E562C4E91256201D00F0A9FA41
:1017800004F1180000F0A5FA2461C5F105006462B7
:10179000A061266584F854604A465146384600F0F8
:1017A00033FA2060B8F1000F01D0C8F80040BDE85E
:1017B000F087000030B5114900E011460A68824206
:1017C000FBD34B685C18844203D1406818444860DE
:1017D000084643681C18944209D1084C103C246800
:1017E000A24209D052681A4442600A681268026034
:1017F000814200D0086030BD0460F9E78800002015
:1018000070B5002441600B4D0061914206D8D11A99
:101810008269914206D2011D286907E09A4203D2EB
:10182000994201D3012403E0011DE86800F054FA55
:10183000204670BD5800002010B5044600F070FA34
:10184000A06B20B1002400F08BFA204610BD0124CB
:10185000F9E7000030B585B02B4D4BE0019800282A
:1018600048DB039C606910B1201D00F014FA04A845
:1018700000F0B6F8024601980A283BD2DFE800F0F3
:101880000505053A263705053A260298A16903465B
:1018900001442046FFF7B4FF00B3616A2046884741
:1018A000E069012826D1002000900298A169002358
:1018B00042181946204601F0D7F878B9502080F335
:1018C0001188BFF34F8FBFF36F8FFEE70298A061BF
:1018D00028B1811813462046FFF792FF0AE05020F6
:1018E00080F31188BFF34F8FBFF36F8FFEE7204661
:1018F00000F04AFA002201A9286800F02DFE002815
:10190000ACD105B030BD0000580000202DE9FC41ED
:101910000E46054600F0DCFB01A800F061F8044625
:10192000019818B101F018F8BDE8FC81224FAEB162
:1019300038690068A8B30026291B3246386800F0D1
:101940009FFA01F009F80028EED11C494FF08050B1
:101950000860BFF34F8FBFF36F8FE5E7A542EBD869
:1019600000F0FAFFF8682646C068C468201D00F041
:1019700092F9E069012810D1A0692B46411932463D
:101980002046FFF73DFF40B100200346014600908E
:101990002A46204601F068F820B1616A204688474F
:1019A000C2E707E0502080F31188BFF34F8FBFF3E9
:1019B0006F8FFEE70126BFE75800002004ED00E02E
:1019C0000648416B096829B1416BC968C968496813
:1019D000816270474FF0FF31FAE700001C000020E1
:1019E00070B5054600F0C8FE064E0446B068844255
:1019F00003D200F009F8012000E000202860204612
:101A0000B46070BD58000020F8B5194E1FE0C068E2
:101A1000C4680568201D00F03EF9616A20468847C9
:101A2000E069012813D1A0692844A84206D924619D
:101A30006060211DF06800F04FF908E000200346C7
:101A4000014600902A46204601F00EF838B1F068B1
:101A500001680029DBD13169C6E90310F8BD5020C7
:101A600080F31188BFF34F8FBFF36F8FFEE7000045
:101A70005800002008484068401C4FF0500080F398
:101A8000118804D0BFF34F8FBFF36F8FFEE7BFF312
:101A90004F8FBFF36F8FFEE76C000020084CE068AB
:101AA000016839B1002139B10020FFF72FFFFFF79E
:101AB000D1FEF4E70121F6E7C0680068F5E7000011
:101AC000580000202DE9F041044600F029F994F96E
:101AD000455004F1240609E0606A48B1304600F040
:101AE00001FF08B100F082FA6D1E6DB2002DF3DC2B
:101AF0004FF0FF3684F8456000F032F900F010F93D
:101B000094F9445004F1100709E0206948B13846BF
:101B100000F0E8FE08B100F069FA6D1E6DB2002D0C
:101B2000F3DC84F84460BDE8F04100F019B900002E
:101B30002DE9F0410546002600F0CAFA314F386819
:101B400008B9FFF78BFDF86805424BD1C5B30835DE
:101B500068070ED005F00700C0F1080005446807CB
:101B600007D0502080F31188BFF34F8FBFF36F8FE2
:101B7000FEE72DB37868854234D8224910310846F3
:101B8000046801E0214604466068A84202D2206849
:101B90000028F7D13868844224D00E682068086095
:101BA00060680836411B10290FD96019420708D018
:101BB000502080F31188BFF34F8FBFF36F8FFEE784
:101BC00010E041606560FFF7F5FD61687868401AD4
:101BD0007860BA68904200D2B860F868014300208B
:101BE000C4E9000100F0B8FE700707D0502080F370
:101BF0001188BFF34F8FBFF36F8FFEE73046BDE80C
:101C0000F08100007800002010B5031F4FF08074B1
:101C10001C601B1F21F001011960191F044B0B6090
:101C200014390A60091F6FF0020244380A6010BDBF
:101C3000751A00081CB500F073F800210320CDE9E7
:101C400000010B46962206A1084800F05BFD0848FB
:101C5000006800F05DF9BDE81C4000F081B80000AC
:101C6000765461736B4C454400000000CD1F0008A2
:101C70000000002010B5FEF765FD0823022219219F
:101C80004FF4B470FFF726FAB420FFF73DFBBDE830
:101C90001040FFF7E3B9D0E9013201699A60D0E959
:101CA00001235A604A68824201D182684A60002258
:101CB00002610868401E08600868704700F108016A
:101CC0004FF0FF32C0E90112C160016100210160E3
:101CD000704700210161704730B50C68621C02D06A
:101CE00000F1080202E0026904E01A4653681D6828
:101CF000A542FAD953684B6099608A6051600861C7
:101D00000168491C016030BD42684A6093688B607D
:101D100093685960916008610168491C01607047CF
:101D2000502080F31188BFF34F8FBFF36F8F0A49A4
:101D30004868401C486001280CD10848006810F031
:101D4000FF0F07D0502080F31188BFF34F8FBFF3F0
:101D50006F8FFEE7704700006C00002004ED00E08C
:101D60000849486828B1401E486001D180F31188B5
:101D70007047502080F31188BFF34F8FBFF36F8FF0
:101D8000FEE700006C00002070B5002827D0144D3D
:101D9000A0F108046068E968084207D1502080F388
:101DA0001188BFF34F8FBFF36F8FFEE722683AB100
:101DB000502080F31188BFF34F8FBFF36F8FFEE782
:101DC0008843606000F084F960686968084468606E
:101DD0002046FFF7EFFCBDE8704000F0BDBD70BDD0
:101DE000780000204FF0E020002101618161054969
:101DF0004FF47A720968B1FBF2F1491E4161072183
:101E0000016170470400002010B5FEF77BFA11490C
:101E100010280ED300F1E02090F8F0030A789042E9
:101E200007D2502080F31188BFF34F8FBFF36F8F1D
:101E3000FEE709480068896800F4E060884207D935
:101E4000502080F31188BFF34F8FBFF36F8FFEE7F1
:101E500010BD00006C0000200CED00E010B5074B39
:101E6000002253F832401CB1521C082AF9D310BD8D
:101E700043F8321003EBC201486010BD9801002006
:101E800070B515460E460446FFF74AFF94F9441014
:101E90000020491C01D184F8440094F94510491CE4
:101EA00001D184F84500FFF75BFFA06B28B92A46F3
:101EB000314604F1240000F0B7F82046BDE8704038
:101EC000FFF700BE10B5020014D00F48006B38B108
:101ED000502080F31188BFF34F8FBFF36F8FFEE761
:101EE00000F0F6F800211046FFF79CFA00F034FDF0
:101EF000002807D105494FF080500860BFF34F8F8D
:101F0000BFF36F8F10BD00001C00002004ED00E047
:101F100070B50446FFF704FF254D04B92C68201D59
:101F2000FFF7B9FE58B9E06A224A00EB800152F887
:101F3000211021B901218140286988432861A06AC4
:101F400018B104F11800FFF7A6FE686A401C686229
:101F50002868844208D11748211DA030FFF7D4FE1D
:101F60006868401C686007E0A868401EA8602046BA
:101F7000FFF769FBFFF724FDFFF7F2FE6869002811
:101F800014D02868844211D1286B38B1502080F3D6
:101F90001188BFF34F8FBFF36F8FFEE706494FF0F5
:101FA00080500860BFF34F8FBFF36F8F70BD00008C
:101FB0001C000020D801002004ED00E002490A6A5C
:101FC0000260C968416070471C00002001210020A8
:101FD000FFF7ECF9C820FFF7B3F900210846FFF737
:101FE000E5F9C820FFF7ACF9F0E70000014901204E
:101FF000C86170471C00002010B50C4650B109495B
:1020000009681831FFF768FE2046BDE8104001213D
:10201000FFF708BA502080F31188BFF34F8FBFF34A
:102020006F8FFEE71C00002070B514460D4668B1A6
:102030000A4909681831FFF767FE0CB14FF0FF3508
:1020400021462846BDE87040FFF7ECB9502080F3E8
:102050001188BFF34F8FBFF36F8FFEE71C00002086
:102060001CB517480024CDE900402346822215A163
:10207000164800F047FB012803D100F0CFFC0128EF
:1020800009D0401C1AD1502080F31188BFF34F8F24
:10209000BFF36F8FFEE7502080F31188BFF34F8F9F
:1020A000BFF36F8F06484FF0FF312C38816201215A
:1020B0004161C460BDE81C4000F040B81CBD000098
:1020C0004800002049444C4500000000A9160008C3
:1020D0000248016B491C0163704700001C0000208E
:1020E000144A106B10B10120D06170470020D061FC
:1020F00010691149B0FA80F0C0F11F0000EB8000B8
:1021000051F820306BB101EB800000F10803416809
:1021100049684160994201D149684160C8681060CE
:102120007047502080F31188BFF34F8FBFF36F8F3C
:10213000FEE700001C000020D80100201CB5374835
:102140000168374A914207D1502080F31188BFF3CC
:102150004F8FBFF36F8FFEE700683149491E8842F9
:1021600007D1502080F31188BFF34F8FBFF36F8FDB
:10217000FEE72C4908780190FF20087008788DF858
:1021800000009DF800009DF8002000F0F000904253
:1021900007D0502080F31188BFF34F8FBFF36F8FAC
:1021A000FEE79DF80000204B00F05000187007205B
:1021B000986006E0401E98609DF8000040008DF891
:1021C00000009DF8000000069868F3D4032807D0AB
:1021D000502080F31188BFF34F8FBFF36F8FFEE75E
:1021E0004FF440709860019808700C4820300168E6
:1021F00041F470010160016841F070410160FFF736
:10220000F1FD00205860FEF745F80848016841F0EC
:1022100040410160FEF72AF800201CBD00ED00E0FF
:1022200071C20F4100E400E06C00002034EF00E0D8
:1022300010B5502080F31188BFF34F8FBFF36F8F1D
:1022400000F0A0FA18B104494FF080500860002057
:1022500080F3118810BD000004ED00E02DE9F0418D
:1022600017460E46050016D0EEB105FB06F05030BD
:10227000FFF75EFC04000CD004F15000AEB120600A
:10228000C4E90F562046012100F012F8204684F8D8
:102290004C70BDE8F081502080F31188BFF34F8F60
:1022A000BFF36F8FFEE70020E1E72460E8E700005E
:1022B00070B50D46040025D0FFF732FDD4E90F209C
:1022C000216802FB0011A1600021A1632168616007
:1022D0000A46D4E90F01401E00FB0121E1602146BE
:1022E0004FF0FF3001F8440F487004F110008DB139
:1022F000FFF7E4FC04F12400FFF7E0FCFFF730FDFA
:10230000012070BD502080F31188BFF34F8FBFF3C1
:102310006F8FFEE721690029F0D000F0E3FA002872
:10232000ECD004494FF080500860BFF34F8FBFF3EB
:102330006F8FE3E704ED00E02DE9FF4F83B01F4608
:102340008B4604004FF0000603D0BBF1000F08D00D
:1023500011E0502080F31188BFF34F8FBFF36F8FD0
:10236000FEE7206C38B1502080F31188BFF34F8F07
:10237000BFF36F8FFEE7022F0AD1E06B012807D071
:10238000502080F31188BFF34F8FBFF36F8FFEE7AC
:1023900000F0E4F9DFF800914FF0000A4FF08058A8
:1023A00048B9059838B1502080F31188BFF34F8F9A
:1023B000BFF36F8FFEE7FFF7B3FCA06BE16B8842C2
:1023C00005D3022F03D00598C8B1DEB11EE03A460E
:1023D00059462046FFF701F9616A19B104F124005A
:1023E00000F080FA28B1C9F80080BFF34F8FBFF327
:1023F0006F8FFFF7B5FC012007B0BDE8F08FFFF746
:10240000AFFC21E06846FFF7D9FD0126FFF7A8FCE5
:10241000FFF75EFEFFF784FC94F94400401C01D1F5
:1024200084F844A094F94500401C01D184F845A0EB
:10243000FFF796FC05A9684600F02AF930B120465E
:10244000FFF740FB00F088FA0020D5E7FFF768FCB3
:10245000A06BE16B884201D1012500E00025FFF768
:102460007FFC95B104F110000599FFF7C5FD2046EA
:10247000FFF728FB00F070FA00289CD1C9F8008013
:10248000BFF34F8FBFF36F8F95E72046FFF71AFB1F
:1024900000F062FA8FE7000004ED00E02DE9F0475C
:1024A0001F4690468946040003D0B9F1000F08D0BA
:1024B00011E0502080F31188BFF34F8FBFF36F8F6F
:1024C000FEE7206C38B1502080F31188BFF34F8FA6
:1024D000BFF36F8FFEE7022F0AD1E06B012807D010
:1024E000502080F31188BFF34F8FBFF36F8FFEE74B
:1024F000FFF78AFC5020EFF3118680F31188BFF3B9
:102500004F8FBFF36F8FA06BE16B884206D3022F12
:1025100004D0002086F31188BDE8F08794F9455077
:102520003A4649462046FFF758F8681C04D06D1C0F
:1025300084F845500120EDE7606A0028FAD004F1E4
:10254000240000F0CFF90028F4D0B8F1000FF1D04A
:102550000121C8F80010EDE72DE9F74783B08A465E
:1025600004004FF0000603D0BAF1000F08D011E0CC
:10257000502080F31188BFF34F8FBFF36F8FFEE7BA
:10258000206C38B1502080F31188BFF34F8FBFF318
:102590006F8FFEE700F0E2F8DFF8F09000274FF0D1
:1025A000805848B9059838B1502080F31188BFF39E
:1025B0004F8FBFF36F8FFEE7FFF7B2FBA56BC5B17F
:1025C00051462046FEF7F6FF6D1EA563206950B107
:1025D00004F1100000F086F928B1C9F80080BFF3BB
:1025E0004F8FBFF36F8FFFF7BBFB012006B0BDE835
:1025F000F087059808B11EB106E0FFF7B1FB27E0B0
:102600006846FFF7DBFC0126FFF7AAFBFFF760FD3A
:10261000FFF786FB94F94400401C01D184F8447014
:1026200094F94500401C01D184F84570FFF798FBF0
:1026300005A9684600F02CF8002820460AD0FFF7CC
:1026400041FA00F089F92046FFF7F6F80028B3D0E8
:102650000020CBE7FFF7F0F890B104F124000599D2
:10266000FFF7CAFC2046FFF72DFA00F075F90028A5
:10267000A2D1C9F80080BFF34F8FBFF36F8F9BE7E4
:102680002046FFF71FFA00F067F995E704ED00E038
:102690002DE9F0410C46050011D0C4B1FFF740FB15
:1026A000174EF1686B682268C81A571C17D02F683C
:1026B000366AB74219D08B4217D8012410E0502057
:1026C00080F31188BFF34F8FBFF36F8FFEE7502069
:1026D00080F31188BFF34F8FBFF36F8FFEE70024A5
:1026E000FFF73EFB2046BDE8F081824205D9101A73
:1026F00020602846FFF762FCF1E700202060DCE75D
:102700001C0000202DE9FF5F8346DDE90E87994616
:1027100016468A469000FFF70BFA05001AD058209B
:10272000FFF706FA040012D025630021CDE902412B
:10273000CDE900874B46324651465846FEF7E2FF48
:102740002046FEF7A7FE012004B0BDE8F09F284612
:10275000FFF71AFB4FF0FF30F6E70000054841692C
:1027600019B1006B18B1002070470120704702209A
:10277000704700001C0000200148C068704700003E
:102780001C0000202DE9F0412E4F0026386B40B18F
:10279000B869401CB861F86900B101263046BDE84F
:1027A000F081FD686D1CFD6013D1786B006838B155
:1027B000502080F31188BFF34F8FBFF36F8FFEE778
:1027C000786BB96B7963B863386A401C3862FFF77D
:1027D000F7F8B86ADFF87080854209D3786B006833
:1027E00080B1786BC068C468606885420DD2B862F9
:1027F0003868C06A00EB800158F821000128CAD966
:102800000126C8E74FF0FF30F1E7201DFFF743FA3C
:10281000A06A18B104F11800FFF73DFAE06A01213F
:102820003A6981401143396100EB800108EB810076
:10283000211DFFF769FAE06A3968C96A8842CDD379
:102840000126CBE71C000020D801002070B5040051
:102850004FF0000041D0214D29688C4207D0502014
:1028600080F31188BFF34F8FBFF36F8FFEE7E16CEA
:1028700071B1491EE164A36CE26A9A422DD000292D
:102880002BD1201DFFF707FA1549012240B112E0B4
:10289000502080F31188BFF34F8FBFF36F8FFEE797
:1028A000E06A00EB800351F8233023B92B6902FA68
:1028B00000F083432B61A06CE062C0F10500A061D1
:1028C000E06A2B6982401A432A6100EB800001EB29
:1028D0008000211DFFF718FA012070BD1C000020A8
:1028E000D80100202DE9F041C068C468ACB104F102
:1028F00018000746FFF7CFF9154D286B0126A0B148
:1029000039461448FFF700FAE06A2968C96A884224
:102910001CD90120EE61BDE8F081502080F31188C0
:10292000BFF34F8FBFF36F8FFEE7201DFFF7B3F9A3
:10293000E06A2A6906FA00F111432961054900EBB2
:1029400080008C3901EB8000211DDBE70020E2E7ED
:102950001C000020640200202DE9F0472C4D0024CB
:102960002746286B38B1FFF7DBF9286B401E286338
:10297000286B40B146E0502080F31188BFF34F8FA1
:10298000BFF36F8FFEE7A86822490126D0B3A1F1FB
:102990008C098846D8F80010E9B1D8F80C00C46852
:1029A00004F11800FFF777F9201DFFF774F9E06ACA
:1029B0002A6906FA00F11143296100EB800109EB55
:1029C0008100211DFFF7A0F9E06A2968C96A8842E1
:1029D000E0D3EE61DEE70CB1FEF7F2FFAC693CB18B
:1029E000FFF7D0FE00B1EE61641EF9D10020A861AE
:1029F000E86938B10849012738070860BFF34F8FED
:102A0000BFF36F8FFFF7ACF93846BDE8F0870000E1
:102A10001C0000206402002004ED00E01CB5FEF75D
:102A2000A1FD0D48006868B10B490220091DCDE9E0
:102A3000000100234FF4827208A10A48FFF762FEEA
:102A4000002807D1502080F31188BFF34F8FBFF3C8
:102A50006F8FFEE71CBD000058000020546D7220EF
:102A6000537663009D1A0008FEB51F460300089EBA
:102A70004FF0000013D0124D2C68002C0ED08DE8C2
:102A80000E00062915DAFFF769FE02284FF0000351
:102A90000DD0002269462868FFF74EFCFEBD50208D
:102AA00080F31188BFF34F8FBFF36F8FFEE732467D
:102AB000F0E700233A4669462046FFF7EFFCFEBDEB
:102AC000580000204FF04070E1EE100A70470000FF
:102AD00000000102030401020304060708090000C4
:102AE000002B00080000002090000000E801000812
:102AF000902B000890000020983401000402000888
:102B00000000000080A8120100000000000000008A
:102B100000000000000000000000000000000000B5
:102B200000000000000000000000000000000000A5
:102B30000000000000000000000000000000000095
:102B40000000000000000000000000000000000085
:102B50000000000000000000000000000000000075
:102B60000000000000000000000000000000000065
:102B7000AAAAAAAA000000000000000000000000AD
:102B80000000000000000000000000000000000045
:04000005080001AD41
:00000001FF
